:0B0A79004D6F74696F6E00435259000E
:10098200D290D2917580FFC2B7C2B0C2B1C2B2E4F6
:10099200F5A01209DC120A32120A04A290E433759D
:1009A2000800F509AF0BAE0A1208007F43120A5F76
:1009B2007F20120A5F120A423090097BFF7A0A797D
:1009C20079120A1C30910E7FC0120A517BFF7A0AFB
:0A09D2007980120A1C120A4280B854
:04080000AB07AA0692
:10080400900000D3EB9400EA9400402A7C007D0A17
:10081400AF03AE021208BEAF82EF25E0240CF8A6A7
:100824000408A6057C007D0AAF03AE021208BEAA26
:1008340006AB07A380CDE582158270021583E4FF21
:10084400FEC3E5836480948040227C007D0A120804
:10085400ACAD82ED25E0240CF8E6FC08E62FFFEEB3
:100864003CFEE582158270D9158380D5C3EF9425AB
:10087400EE64809480400FD3EF9428EE64809480DB
:0E0884005004C2B78005D2B7120A42120A42CF
:010892002243
:1009DC007F01120A51120A427F06120A51120A4270
:1009EC007F0E120A51120A427F38120A51120A4221
:0809FC007F80120A51020A4239
:0E0A51008FA0C2B0C2B1D2B2120A42C2B2220B
:0E0A4200E4FFFE0FBF00010EBE4EF8BF20F510
:010A50002283
:0E0A5F008FA0D2B0C2B1D2B2120A42C2B222ED
:100A1C00120893FF600F120A5F120A42740129F93F
:060A2C00E43AFA80EB221F
:100A3200C2B3120A42D2B320B5FD120A42D2B52283
:100A0400C2B4120A42AF80750A008F0B120A42D296
:080A1400B4AF0BAE0A02091396
:04091300AB07AA067E
:10091700900000D3EB9400EA9400402A7C007D0A03
:10092700AF03AE021208BEAF82EF25E0240CF8A693
:100937000408A6057C007D0AAF03AE021208BEAA12
:1009470006AB07A380CDE582158270021583C3E548
:1009570083648094804023AF82EF25E0240CF8085D
:10096700E62430F5A0C2B1D2B0D2B2120A42C2B266
:0A097700E582158270D8158380D444
:010981002253
:03000000020A6D84
:0C0A6D00787FE4F6D8FD75811F02098235
:10089300BB010689828A83E0225002E722BBFE0263
:0908A300E32289828A83E4932296
:1008AC00EF8DF0A4A8F0CF8CF0A428CE8DF0A42E60
:0208BC00FE221A
:1008BE00BC000BBE0029EF8DF084FFADF022E4CC1E
:1008CE00F875F008EF2FFFEE33FEEC33FCEE9DECE7
:1008DE00984005FCEE9DFE0FD5F0E9E4CEFD22ED2D
:1008EE00F8F5F0EE8420D21CFEADF075F008EF2F77
:1008FE00FFED33FD4007985006D5F0F222C398FD68
:05090E000FD5F0EA2204
:00000001FF
